{
  "contractName": "Cache",
  "abi": [
    {
      "constant": false,
      "inputs": [
        {
          "name": "_guess",
          "type": "bytes32"
        }
      ],
      "name": "findCache",
      "outputs": [],
      "payable": false,
      "stateMutability": "nonpayable",
      "type": "function"
    },
    {
      "constant": true,
      "inputs": [],
      "name": "placer",
      "outputs": [
        {
          "name": "",
          "type": "address"
        }
      ],
      "payable": false,
      "stateMutability": "view",
      "type": "function"
    },
    {
      "constant": false,
      "inputs": [],
      "name": "addBounty",
      "outputs": [],
      "payable": true,
      "stateMutability": "payable",
      "type": "function"
    },
    {
      "constant": true,
      "inputs": [],
      "name": "bounty",
      "outputs": [
        {
          "name": "",
          "type": "uint256"
        }
      ],
      "payable": false,
      "stateMutability": "view",
      "type": "function"
    },
    {
      "constant": true,
      "inputs": [],
      "name": "viewCache",
      "outputs": [
        {
          "name": "",
          "type": "uint256"
        }
      ],
      "payable": false,
      "stateMutability": "view",
      "type": "function"
    },
    {
      "constant": true,
      "inputs": [],
      "name": "finder",
      "outputs": [
        {
          "name": "",
          "type": "address"
        }
      ],
      "payable": false,
      "stateMutability": "view",
      "type": "function"
    },
    {
      "constant": true,
      "inputs": [
        {
          "name": "_passphrase",
          "type": "string"
        },
        {
          "name": "_placer",
          "type": "address"
        }
      ],
      "name": "finder",
      "outputs": [
        {
          "name": "",
          "type": "address"
        }
      ],
      "payable": false,
      "stateMutability": "nonpayable",
      "type": "constructor"
    },
    {
      "inputs": [
        {
          "name": "winnner",
          "type": "address",
          "indexed": false
        },
        {
          "name": "_placer",
          "type": "address"
        }
      ],
      "payable": false,
      "stateMutability": "nonpayable",
      "type": "event",
      "anonymous": false,
      "name": "CacheFound"
    },
    {
      "anonymous": false,
      "inputs": [
        {
          "indexed": false,
          "name": "winnner",
          "type": "address"
        }
      ],
      "name": "CacheFound",
      "type": "event"
    }
  ],
  "bytecode": "0x6060604052341561000f57600080fd5b6040516105a63803806105a68339810160405280805182019190602001805190602001909190505080600160006101000a81548173ffffffffffffffffffffffffffffffffffffffff021916908373ffffffffffffffffffffffffffffffffffffffff1602179055506000600281905550816003908051906020019061009692919061009e565b505050610143565b828054600181600116156101000203166002900490600052602060002090601f016020900481019282601f106100df57805160ff191683800117855561010d565b8280016001018555821561010d579182015b8281111561010c5782518255916020019190600101906100f1565b5b50905061011a919061011e565b5090565b61014091905b8082111561013c576000816000905550600101610124565b5090565b90565b610454806101526000396000f300606060405260043610610078576000357c0100000000000000000000000000000000000000000000000000000000900463ffffffff16806312030b881461007d578063532501fb146100a45780639319458c146100f9578063943dfef114610103578063a9a025de1461012c578063b9a3c84c14610155575b600080fd5b341561008857600080fd5b6100a26004808035600019169060200190919050506101aa565b005b34156100af57600080fd5b6100b7610291565b604051808273ffffffffffffffffffffffffffffffffffffffff1673ffffffffffffffffffffffffffffffffffffffff16815260200191505060405180910390f35b6101016102b7565b005b341561010e57600080fd5b6101166102e2565b6040518082815260200191505060405180910390f35b341561013757600080fd5b61013f6102e8565b6040518082815260200191505060405180910390f35b341561016057600080fd5b6101686102f2565b604051808273ffffffffffffffffffffffffffffffffffffffff1673ffffffffffffffffffffffffffffffffffffffff16815260200191505060405180910390f35b600360405180828054600181600116156101000203166002900480156102075780601f106101e5576101008083540402835291820191610207565b820191906000526020600020905b8154815290600101906020018083116101f3575b50509150506040518091039020600019168160405180826000191660001916815260200191505060405180910390206000191614151561024657600080fd5b336000806101000a81548173ffffffffffffffffffffffffffffffffffffffff021916908373ffffffffffffffffffffffffffffffffffffffff16021790555061028e610317565b50565b600160009054906101000a900473ffffffffffffffffffffffffffffffffffffffff1681565b60001515600460009054906101000a900460ff1615151415156102d957600080fd5b34600281905550565b60025481565b6000600254905090565b6000809054906101000a900473ffffffffffffffffffffffffffffffffffffffff1681565b6001600460006101000a81548160ff0219169083151502179055507fef7d8d7cd1d5c959509c052ccfeeecc649d4bc0dda37e37b1aedde16aa1fd6346000809054906101000a900473ffffffffffffffffffffffffffffffffffffffff16604051808273ffffffffffffffffffffffffffffffffffffffff1673ffffffffffffffffffffffffffffffffffffffff16815260200191505060405180910390a1614e206002541115610426576000809054906101000a900473ffffffffffffffffffffffffffffffffffffffff1673ffffffffffffffffffffffffffffffffffffffff166108fc6002549081150290604051600060405180830381858888f19350505050151561042557600080fd5b5b5600a165627a7a723058201da4c6222a846396a11a1d4033ca287afd980d6d73929670f391f680442fec870029",
  "source": "pragma solidity ^0.4.11;\n\ncontract Cache {\n    // Parameters of the auction. Times are either\n    // absolute unix timestamps (seconds since 1970-01-01)\n    // or time periods in seconds.\n    address public finder;\n    address public placer;\n\n    // Current state of the auction.\n    uint public bounty;\n    string passphrase;\n\n    // Set to true at the end, disallows any change\n    bool ended;\n\n    // Events that will be fired on changes.\n    event CacheFound(address winnner);\n\n    function Cache (\n        string _passphrase, \n        address _placer\n    ) {\n        placer = _placer;\n        bounty = 0;\n        passphrase = _passphrase;\n        \n    }\n\n    function addBounty() payable {\n       require(ended == false);\n       bounty = msg.value;\n    }\n\n    function viewCache() constant returns (uint) {\n        return bounty;\n    }\n\n    /// Bid on the auction with the value sent\n    /// together with this transaction.\n    /// The value will only be refunded if the\n    /// auction is not won.\n    function findCache(bytes32 _guess) {\n        // If the bid is not higher, send the\n        // money back.\n        require(keccak256(_guess) == keccak256(passphrase));\n\n        finder = msg.sender;\n        cacheEnd();\n    }\n\n\n    /// End the auction and send the highest bid\n    /// to the beneficiary.\n    function cacheEnd() internal {\n        // It is a good guideline to structure functions that interact\n        // with other contracts (i.e. they call functions or send Ether)\n        // into three phases:\n        // 1. checking conditions\n        // 2. performing actions (potentially changing conditions)\n        // 3. interacting with other contracts\n        // If these phases are mixed up, the other contract could call\n        // back into the current contract and modify the state or cause\n        // effects (ether payout) to be performed multiple times.\n        // If functions called internally include interaction with external\n        // contracts, they also have to be considered interaction with\n        // external contracts.\n\n        // 1. Conditions\n\n        // 2. Effects\n        ended = true;\n        CacheFound(finder);\n\n        // 3. Interaction\n        if (bounty > 20000) {\n          finder.transfer(bounty);\n        }\n    }\n}",
  "sourcePath": "/Users/emessess/FSA/Senior/Stackathon/ETHCache/contracts/Cache.sol",
  "compiler": {
    "name": "solc",
    "version": "0.4.18+commit.9cf6e910.Emscripten.clang"
  },
  "schemaVersion": "1.0.1",
  "updatedAt": "2017-11-13T02:57:51.284Z"
}