{
  "contractName": "CacheGame",
  "abi": [
    {
      "constant": true,
      "inputs": [
        {
          "name": "cacheAddress",
          "type": "address"
        },
        {
          "name": "passPhrase",
          "type": "bytes32"
        }
      ],
      "name": "viewCache",
      "outputs": [
        {
          "name": "",
          "type": "bytes32"
        },
        {
          "name": "",
          "type": "bytes32"
        },
        {
          "name": "",
          "type": "uint256"
        }
      ],
      "payable": false,
      "stateMutability": "view",
      "type": "function"
    },
    {
      "constant": false,
      "inputs": [
        {
          "name": "_title",
          "type": "bytes32"
        },
        {
          "name": "_hint",
          "type": "bytes32"
        },
        {
          "name": "_passphrase",
          "type": "bytes32"
        }
      ],
      "name": "createCache",
      "outputs": [
        {
          "name": "",
          "type": "bool"
        },
        {
          "name": "",
          "type": "bytes32"
        },
        {
          "name": "",
          "type": "uint256"
        }
      ],
      "payable": true,
      "stateMutability": "payable",
      "type": "function"
    },
    {
      "constant": true,
      "inputs": [
        {
          "name": "",
          "type": "uint256"
        },
        {
          "name": "_hint",
          "type": "bytes32"
        },
        {
          "name": "_passphrase",
          "type": "bytes32"
        }
      ],
      "name": "openCaches",
      "outputs": [
        {
          "name": "creator",
          "type": "address"
        },
        {
          "name": "bounty",
          "type": "uint256"
        },
        {
          "name": "title",
          "type": "bytes32"
        },
        {
          "name": "hint",
          "type": "bytes32"
        },
        {
          "name": "passphrase",
          "type": "bytes32"
        },
        {
          "name": "found",
          "type": "bool"
        }
      ],
      "payable": false,
      "stateMutability": "view",
      "type": "function"
    },
    {
      "constant": true,
      "inputs": [
        {
          "name": "",
          "type": "uint256"
        },
        {
          "name": "_hint",
          "type": "bytes32"
        },
        {
          "name": "_passphrase",
          "type": "bytes32"
        }
      ],
      "name": "closedCaches",
      "outputs": [
        {
          "name": "creator",
          "type": "address"
        },
        {
          "name": "bounty",
          "type": "uint256"
        },
        {
          "name": "title",
          "type": "bytes32"
        },
        {
          "name": "hint",
          "type": "bytes32"
        },
        {
          "name": "passphrase",
          "type": "bytes32"
        },
        {
          "name": "found",
          "type": "bool"
        }
      ],
      "payable": false,
      "stateMutability": "view",
      "type": "function"
    },
    {
      "constant": true,
      "inputs": [
        {
          "name": "",
          "type": "address"
        }
      ],
      "name": "caches",
      "outputs": [
        {
          "name": "creator",
          "type": "address"
        },
        {
          "name": "bounty",
          "type": "uint256"
        },
        {
          "name": "title",
          "type": "bytes32"
        },
        {
          "name": "hint",
          "type": "bytes32"
        },
        {
          "name": "passphrase",
          "type": "bytes32"
        },
        {
          "name": "found",
          "type": "bool"
        }
      ],
      "payable": false,
      "stateMutability": "view",
      "type": "function"
    },
    {
      "constant": true,
      "inputs": [
        {
          "name": "",
          "type": "uint256"
        }
      ],
      "name": "closedCaches",
      "outputs": [
        {
          "name": "creator",
          "type": "address"
        },
        {
          "name": "bounty",
          "type": "uint256"
        },
        {
          "name": "title",
          "type": "bytes32"
        },
        {
          "name": "hint",
          "type": "bytes32"
        },
        {
          "name": "passphrase",
          "type": "bytes32"
        },
        {
          "name": "found",
          "type": "bool"
        }
      ],
      "payable": false,
      "stateMutability": "view",
      "type": "function"
    },
    {
      "constant": true,
      "inputs": [
        {
          "name": "",
          "type": "address"
        }
      ],
      "name": "caches",
      "outputs": [
        {
          "name": "creator",
          "type": "address"
        },
        {
          "name": "bounty",
          "type": "uint256"
        },
        {
          "name": "title",
          "type": "bytes32"
        },
        {
          "name": "hint",
          "type": "bytes32"
        },
        {
          "name": "passphrase",
          "type": "bytes32"
        },
        {
          "name": "found",
          "type": "bool"
        }
      ],
      "payable": false,
      "stateMutability": "view",
      "type": "function"
    }
  ],
  "bytecode": "0x6060604052341561000f57600080fd5b6104cb8061001e6000396000f300606060405260043610610062576000357c0100000000000000000000000000000000000000000000000000000000900463ffffffff168063372525a514610067578063416960ff146100d25780634f13ee4414610108578063803b6965146101aa575b600080fd5b341561007257600080fd5b61009e600480803573ffffffffffffffffffffffffffffffffffffffff1690602001909190505061024c565b6040518084600019166000191681526020018360001916600019168152602001828152602001935050505060405180910390f35b6101066004808035600019169060200190919080356000191690602001909190803560001916906020019091905050610258565b005b341561011357600080fd5b61012960048080359060200190919050506103af565b604051808773ffffffffffffffffffffffffffffffffffffffff1673ffffffffffffffffffffffffffffffffffffffff16815260200186815260200185600019166000191681526020018460001916600019168152602001836000191660001916815260200182151515158152602001965050505050505060405180910390f35b34156101b557600080fd5b6101cb6004808035906020019091905050610427565b604051808773ffffffffffffffffffffffffffffffffffffffff1673ffffffffffffffffffffffffffffffffffffffff16815260200186815260200185600019166000191681526020018460001916600019168152602001836000191660001916815260200182151515158152602001965050505050505060405180910390f35b60008060009193909250565b60c0604051908101604052803373ffffffffffffffffffffffffffffffffffffffff1681526020013481526020018460001916815260200183600019168152602001826040518082600019166000191681526020019150506040518091039020600019168152602001600015158152506000803373ffffffffffffffffffffffffffffffffffffffff1673ffffffffffffffffffffffffffffffffffffffff16815260200190815260200160002060008201518160000160006101000a81548173ffffffffffffffffffffffffffffffffffffffff021916908373ffffffffffffffffffffffffffffffffffffffff1602179055506020820151816001015560408201518160020190600019169055606082015181600301906000191690556080820151816004019060001916905560a08201518160050160006101000a81548160ff021916908315150217905550905050505050565b6001818154811015156103be57fe5b90600052602060002090600602016000915090508060000160009054906101000a900473ffffffffffffffffffffffffffffffffffffffff16908060010154908060020154908060030154908060040154908060050160009054906101000a900460ff16905086565b60028181548110151561043657fe5b90600052602060002090600602016000915090508060000160009054906101000a900473ffffffffffffffffffffffffffffffffffffffff16908060010154908060020154908060030154908060040154908060050160009054906101000a900460ff169050865600a165627a7a72305820da3d7e75bef3a778b133c96c2f11d1725ce61591b6beea7f29f0dc0b9dd9fd300029",
  "source": "\npragma solidity ^0.4.2;\n\ncontract CacheGame {\n  \n  struct Cache {\n    address creator;\n    uint bounty;\n    bytes32 title;\n    bytes32 hint;\n    bytes32 passphrase;\n    bool found;\n  }\n  \n  mapping (address => Cache) caches;\n\n  Cache[] public openCaches;\n  Cache[] public closedCaches;\n\n// make a new cache\n\n  function createCache(bytes32 _title, bytes32 _hint, bytes32 _passphrase) public payable \n  {\n    caches[msg.sender] = Cache({\n      creator: msg.sender,\n      bounty: msg.value,\n      title: _title,\n      hint: _hint,\n      passphrase: keccak256(_passphrase),\n      found: false\n    });\n\n  }\n\n//view an active cache\n\n  function viewCache(address cacheAddress) public constant returns(bytes32, bytes32, uint) {\n    // return (caches[cacheAddress].title, caches[cacheAddress].hint, caches[cacheAddress].bounty);\n  }\n\n//solve an existing cache\n\n  // function solveCache(address solvedAddress, bytes32 passPhrase) returns(bool) {\n  //   //check validity\n  //   require(keccak256(caches[solvedAddress].passphrase) == keccak256(passPhrase));\n    \n  //   //declare bounty\n  //   uint bountyAmount = caches[solvedAddress].bounty;\n    \n  //   //set cache to found and zero out bounty\n  //   caches[solvedAddress].found = true;\n  //   caches[solvedAddress].bounty = 0;\n\n  //   //pay bounty\n  //   msg.sender.transfer(bountyAmount);\n\n  // }\n\n\n\n\n\n\n}",
  "sourcePath": "/Users/emessess/FSA/Senior/Stackathon/ETHCache/contracts/CacheGame.sol",
  "compiler": {
    "name": "solc",
    "version": "0.4.18+commit.9cf6e910.Emscripten.clang"
  },
  "schemaVersion": "1.0.1",
  "updatedAt": "2017-11-13T00:13:10.804Z"
}