{
  "contractName": "Cache",
  "abi": [
    {
      "constant": false,
      "inputs": [
        {
          "name": "_code",
          "type": "uint256"
        }
      ],
      "name": "findCache",
      "outputs": [
        {
          "name": "",
          "type": "uint256"
        }
      ],
      "payable": false,
      "stateMutability": "nonpayable",
      "type": "function"
    },
    {
      "constant": true,
      "inputs": [
        {
          "name": "amt",
          "type": "uint256"
        }
      ],
      "name": "placer",
      "outputs": [
        {
          "name": "",
          "type": "address"
        }
      ],
      "payable": false,
      "stateMutability": "view",
      "type": "function"
    },
    {
      "constant": false,
      "inputs": [],
      "name": "addBounty",
      "outputs": [
        {
          "name": "",
          "type": "address"
        }
      ],
      "payable": true,
      "stateMutability": "payable",
      "type": "function"
    },
    {
      "constant": true,
      "inputs": [],
      "name": "checkEnded",
      "outputs": [
        {
          "name": "",
          "type": "bool"
        }
      ],
      "payable": false,
      "stateMutability": "view",
      "type": "function"
    },
    {
      "constant": true,
      "inputs": [],
      "name": "bounty",
      "outputs": [
        {
          "name": "",
          "type": "uint256"
        }
      ],
      "payable": false,
      "stateMutability": "view",
      "type": "function"
    },
    {
      "constant": true,
      "inputs": [],
      "name": "checkBounty",
      "outputs": [
        {
          "name": "",
          "type": "uint256"
        }
      ],
      "payable": false,
      "stateMutability": "view",
      "type": "function"
    },
    {
      "inputs": [
        {
          "name": "_passphrase",
          "type": "uint256"
        },
        {
          "name": "_placer",
          "type": "address"
        }
      ],
      "payable": false,
      "stateMutability": "view",
      "type": "function",
      "constant": true,
      "name": "finder",
      "outputs": [
        {
          "name": "",
          "type": "address"
        }
      ]
    },
    {
      "anonymous": false,
      "inputs": [
        {
          "indexed": false,
          "name": "_passphrase",
          "type": "uint256"
        }
      ],
      "name": "CacheFound",
      "type": "constructor",
      "payable": false,
      "stateMutability": "nonpayable"
    },
    {
      "anonymous": false,
      "inputs": [
        {
          "indexed": false,
          "name": "winnner",
          "type": "address"
        }
      ],
      "name": "CacheFound",
      "type": "event"
    }
  ],
  "bytecode": "0x6060604052341561000f57600080fd5b6040516020806104d88339810160405280805190602001909190505033600160006101000a81548173ffffffffffffffffffffffffffffffffffffffff021916908373ffffffffffffffffffffffffffffffffffffffff16021790555034600281905550806003819055506000600460006101000a81548160ff02191690831515021790555050610433806100a56000396000f300606060405260043610610083576000357c0100000000000000000000000000000000000000000000000000000000900463ffffffff16806320a2baa814610088578063532501fb146100bf5780639319458c14610114578063941799dd1461011e578063943dfef11461014b57806394ad836214610174578063b9a3c84c1461019d575b600080fd5b341561009357600080fd5b6100a960048080359060200190919050506101f2565b6040518082815260200191505060405180910390f35b34156100ca57600080fd5b6100d2610273565b604051808273ffffffffffffffffffffffffffffffffffffffff1673ffffffffffffffffffffffffffffffffffffffff16815260200191505060405180910390f35b61011c610299565b005b341561012957600080fd5b6101316102ab565b604051808215151515815260200191505060405180910390f35b341561015657600080fd5b61015e6102c2565b6040518082815260200191505060405180910390f35b341561017f57600080fd5b6101876102c8565b6040518082815260200191505060405180910390f35b34156101a857600080fd5b6101b06102d2565b604051808273ffffffffffffffffffffffffffffffffffffffff1673ffffffffffffffffffffffffffffffffffffffff16815260200191505060405180910390f35b6000600460009054906101000a900460ff16158015610212575060035482145b1561026957336000806101000a81548173ffffffffffffffffffffffffffffffffffffffff021916908373ffffffffffffffffffffffffffffffffffffffff16021790555061025f6102f7565b600254905061026e565b600090505b919050565b600160009054906101000a900473ffffffffffffffffffffffffffffffffffffffff1681565b34600260008282540192505081905550565b6000600460009054906101000a900460ff16905090565b60025481565b6000600254905090565b6000809054906101000a900473ffffffffffffffffffffffffffffffffffffffff1681565b6001600460006101000a81548160ff0219169083151502179055507fef7d8d7cd1d5c959509c052ccfeeecc649d4bc0dda37e37b1aedde16aa1fd6346000809054906101000a900473ffffffffffffffffffffffffffffffffffffffff16604051808273ffffffffffffffffffffffffffffffffffffffff1673ffffffffffffffffffffffffffffffffffffffff16815260200191505060405180910390a160016002541115610405576000809054906101000a900473ffffffffffffffffffffffffffffffffffffffff1673ffffffffffffffffffffffffffffffffffffffff166108fc6002549081150290604051600060405180830381858888f19350505050151561040457600080fd5b5b5600a165627a7a723058205f0a35a7b00240884d433c6debb0e6ff08260ee520b6f6f4629b5893e89f96f90029",
  "source": "pragma solidity ^0.4.11;\n\ncontract Cache {\n\n    address public finder;\n    address public placer;\n\n    uint public bounty;\n    uint passphrase;\n\n    // Set to true when cache is found, disallows any change\n    bool ended;\n\n    // Events that will be fired on changes.\n    event CacheFound(address winnner);\n\n    //constructor\n    function Cache (uint _passphrase) {\n        placer = msg.sender;\n        bounty = msg.value;\n        passphrase = _passphrase;\n        ended = false;\n    }\n\n    //add to the current bounty\n    function addBounty() payable {\n       bounty += msg.value;\n    }\n\n    function checkEnded() constant returns(bool) {\n      return ended;\n    }\n\n    function checkBounty() constant returns (uint) {\n        return bounty;\n    }\n\n    /// Attempt to prove you found the cache using code on object\n    \n    function findCache(uint _code) returns(uint) {\n        // If the code is not correct, end the cache game\n\n      if (!ended && _code == passphrase) {\n        finder = msg.sender;\n        cacheEnd();\n        return bounty;\n      }\n      // if not return 0\n        return 0;\n    }\n\n    function cacheEnd() internal {\n        ended = true;\n        CacheFound(finder);\n\n        if (bounty > 1) {\n          finder.transfer(bounty);\n        }\n    }\n}",
  "sourcePath": "/Users/emessess/FSA/Senior/Stackathon/ETHCache/contracts/Cache.sol",
  "compiler": {
    "name": "solc",
    "version": "0.4.18+commit.9cf6e910.Emscripten.clang"
  },
  "schemaVersion": "1.0.1",
  "updatedAt": "2017-11-14T03:05:20.337Z"
}