{
  "contractName": "CacheGame",
  "abi": [
    {
      "constant": true,
      "inputs": [
        {
          "name": "cacheAddress",
          "type": "address"
        }
      ],
      "name": "viewCache",
      "outputs": [
        {
          "name": "",
          "type": "bytes32"
        },
        {
          "name": "",
          "type": "bytes32"
        },
        {
          "name": "",
          "type": "uint256"
        },
        {
          "name": "hint",
          "type": "bytes32"
        },
        {
          "name": "passphrase",
          "type": "string"
        },
        {
          "name": "found",
          "type": "bool"
        }
      ],
      "payable": false,
      "stateMutability": "view",
      "type": "function"
    },
    {
      "constant": true,
      "inputs": [
        {
          "name": "",
          "type": "uint256"
        }
      ],
      "name": "openCaches",
      "outputs": [
        {
          "name": "creator",
          "type": "address"
        },
        {
          "name": "bounty",
          "type": "uint256"
        },
        {
          "name": "title",
          "type": "bytes32"
        },
        {
          "name": "hint",
          "type": "bytes32"
        },
        {
          "name": "passphrase",
          "type": "string"
        },
        {
          "name": "found",
          "type": "bool"
        }
      ],
      "payable": false,
      "stateMutability": "view",
      "type": "function"
    },
    {
      "constant": true,
      "inputs": [
        {
          "name": "",
          "type": "uint256"
        },
        {
          "name": "_hint",
          "type": "bytes32"
        },
        {
          "name": "_passphrase",
          "type": "string"
        }
      ],
      "name": "closedCaches",
      "outputs": [
        {
          "name": "creator",
          "type": "address"
        },
        {
          "name": "bounty",
          "type": "uint256"
        },
        {
          "name": "title",
          "type": "bytes32"
        },
        {
          "name": "hint",
          "type": "bytes32"
        },
        {
          "name": "passphrase",
          "type": "string"
        },
        {
          "name": "found",
          "type": "bool"
        }
      ],
      "payable": false,
      "stateMutability": "view",
      "type": "function"
    },
    {
      "constant": false,
      "inputs": [
        {
          "name": "_title",
          "type": "bytes32"
        },
        {
          "name": "_hint",
          "type": "bytes32"
        },
        {
          "name": "_passphrase",
          "type": "string"
        }
      ],
      "name": "createCache",
      "outputs": [
        {
          "name": "creator",
          "type": "address"
        },
        {
          "name": "bounty",
          "type": "uint256"
        },
        {
          "name": "title",
          "type": "bytes32"
        },
        {
          "name": "hint",
          "type": "bytes32"
        },
        {
          "name": "passphrase",
          "type": "string"
        },
        {
          "name": "found",
          "type": "bool"
        }
      ],
      "payable": true,
      "stateMutability": "payable",
      "type": "function"
    },
    {
      "constant": true,
      "inputs": [
        {
          "name": "",
          "type": "address"
        }
      ],
      "name": "caches",
      "outputs": [
        {
          "name": "creator",
          "type": "address"
        },
        {
          "name": "bounty",
          "type": "uint256"
        },
        {
          "name": "title",
          "type": "bytes32"
        },
        {
          "name": "hint",
          "type": "bytes32"
        },
        {
          "name": "passphrase",
          "type": "string"
        },
        {
          "name": "found",
          "type": "bool"
        }
      ],
      "payable": false,
      "stateMutability": "view",
      "type": "function"
    }
  ],
  "bytecode": "0x6060604052341561000f57600080fd5b610bc88061001e6000396000f30060606040526004361061006d576000357c0100000000000000000000000000000000000000000000000000000000900463ffffffff168063372525a5146100725780634f13ee44146100dd578063803b6965146101f9578063f112d9f414610315578063f818c58714610381575b600080fd5b341561007d57600080fd5b6100a9600480803573ffffffffffffffffffffffffffffffffffffffff169060200190919050506104b3565b6040518084600019166000191681526020018360001916600019168152602001828152602001935050505060405180910390f35b34156100e857600080fd5b6100fe600480803590602001909190505061058b565b604051808773ffffffffffffffffffffffffffffffffffffffff1673ffffffffffffffffffffffffffffffffffffffff1681526020018681526020018560001916600019168152602001846000191660001916815260200180602001831515151581526020018281038252848181546001816001161561010002031660029004815260200191508054600181600116156101000203166002900480156101e55780601f106101ba576101008083540402835291602001916101e5565b820191906000526020600020905b8154815290600101906020018083116101c857829003601f168201915b505097505050505050505060405180910390f35b341561020457600080fd5b61021a6004808035906020019091905050610602565b604051808773ffffffffffffffffffffffffffffffffffffffff1673ffffffffffffffffffffffffffffffffffffffff1681526020018681526020018560001916600019168152602001846000191660001916815260200180602001831515151581526020018281038252848181546001816001161561010002031660029004815260200191508054600181600116156101000203166002900480156103015780601f106102d657610100808354040283529160200191610301565b820191906000526020600020905b8154815290600101906020018083116102e457829003601f168201915b505097505050505050505060405180910390f35b61037f6004808035600019169060200190919080356000191690602001909190803590602001908201803590602001908080601f01602080910402602001604051908101604052809392919081815260200183838082843782019150505050505091905050610679565b005b341561038c57600080fd5b6103b8600480803573ffffffffffffffffffffffffffffffffffffffff1690602001909190505061090c565b604051808773ffffffffffffffffffffffffffffffffffffffff1673ffffffffffffffffffffffffffffffffffffffff16815260200186815260200185600019166000191681526020018460001916600019168152602001806020018315151515815260200182810382528481815460018160011615610100020316600290048152602001915080546001816001161561010002031660029004801561049f5780601f106104745761010080835404028352916020019161049f565b820191906000526020600020905b81548152906001019060200180831161048257829003601f168201915b505097505050505050505060405180910390f35b60008060008060008573ffffffffffffffffffffffffffffffffffffffff1673ffffffffffffffffffffffffffffffffffffffff168152602001908152602001600020600201546000808673ffffffffffffffffffffffffffffffffffffffff1673ffffffffffffffffffffffffffffffffffffffff168152602001908152602001600020600301546000808773ffffffffffffffffffffffffffffffffffffffff1673ffffffffffffffffffffffffffffffffffffffff168152602001908152602001600020600101549250925092509193909250565b60018181548110151561059a57fe5b90600052602060002090600602016000915090508060000160009054906101000a900473ffffffffffffffffffffffffffffffffffffffff169080600101549080600201549080600301549080600401908060050160009054906101000a900460ff16905086565b60028181548110151561061157fe5b90600052602060002090600602016000915090508060000160009054906101000a900473ffffffffffffffffffffffffffffffffffffffff169080600101549080600201549080600301549080600401908060050160009054906101000a900460ff16905086565b60c0604051908101604052803373ffffffffffffffffffffffffffffffffffffffff1681526020013481526020018460001916815260200183600019168152602001828152602001600015158152506000803373ffffffffffffffffffffffffffffffffffffffff1673ffffffffffffffffffffffffffffffffffffffff16815260200190815260200160002060008201518160000160006101000a81548173ffffffffffffffffffffffffffffffffffffffff021916908373ffffffffffffffffffffffffffffffffffffffff1602179055506020820151816001015560408201518160020190600019169055606082015181600301906000191690556080820151816004019080519060200190610793929190610974565b5060a08201518160050160006101000a81548160ff021916908315150217905550905050600180548060010182816107cb91906109f4565b916000526020600020906006020160008060003373ffffffffffffffffffffffffffffffffffffffff1673ffffffffffffffffffffffffffffffffffffffff16815260200190815260200160002090919091506000820160009054906101000a900473ffffffffffffffffffffffffffffffffffffffff168160000160006101000a81548173ffffffffffffffffffffffffffffffffffffffff021916908373ffffffffffffffffffffffffffffffffffffffff160217905550600182015481600101556002820154816002019060001916905560038201548160030190600019169055600482018160040190805460018160011615610100020316600290046108d6929190610a26565b506005820160009054906101000a900460ff168160050160006101000a81548160ff021916908315150217905550505050505050565b60006020528060005260406000206000915090508060000160009054906101000a900473ffffffffffffffffffffffffffffffffffffffff169080600101549080600201549080600301549080600401908060050160009054906101000a900460ff16905086565b828054600181600116156101000203166002900490600052602060002090601f016020900481019282601f106109b557805160ff19168380011785556109e3565b828001600101855582156109e3579182015b828111156109e25782518255916020019190600101906109c7565b5b5090506109f09190610aad565b5090565b815481835581811511610a2157600602816006028360005260206000209182019101610a209190610ad2565b5b505050565b828054600181600116156101000203166002900490600052602060002090601f016020900481019282601f10610a5f5780548555610a9c565b82800160010185558215610a9c57600052602060002091601f016020900482015b82811115610a9b578254825591600101919060010190610a80565b5b509050610aa99190610aad565b5090565b610acf91905b80821115610acb576000816000905550600101610ab3565b5090565b90565b610b5191905b80821115610b4d57600080820160006101000a81549073ffffffffffffffffffffffffffffffffffffffff0219169055600182016000905560028201600090556003820160009055600482016000610b309190610b54565b6005820160006101000a81549060ff021916905550600601610ad8565b5090565b90565b50805460018160011615610100020316600290046000825580601f10610b7a5750610b99565b601f016020900490600052602060002090810190610b989190610aad565b5b505600a165627a7a72305820ed436deead246cb4022d7e92c83d23b97349e598d06b4662699ba10814f1358c0029",
  "source": "\npragma solidity ^0.4.2;\n\ncontract CacheGame {\n  \n  struct Cache {\n    address creator;\n    uint bounty;\n    bytes32 title;\n    bytes32 hint;\n    string passphrase;\n    bool found;\n  }\n  \n  mapping (address => Cache) public caches;\n\n  Cache[] public openCaches;\n  Cache[] public closedCaches;\n\n  function createCache(bytes32 _title, bytes32 _hint, string _passphrase) payable \n  {\n    caches[msg.sender] = Cache({\n      creator: msg.sender,\n      bounty: msg.value,\n      title: _title,\n      hint: _hint,\n      passphrase: _passphrase,\n      found: false\n    });\n\n    openCaches.push(caches[msg.sender]);\n\n  }\n\n  function viewCache(address cacheAddress) constant returns(bytes32, bytes32, uint) {\n    return (caches[cacheAddress].title, caches[cacheAddress].hint, caches[cacheAddress].bounty);\n  }\n\n\n\n\n}",
  "sourcePath": "/Users/emessess/FSA/Senior/Stackathon/Notes/contracts/CacheGame.sol",
  "compiler": {
    "name": "solc",
    "version": "0.4.18+commit.9cf6e910.Emscripten.clang"
  },
  "schemaVersion": "1.0.1",
  "updatedAt": "2017-11-12T17:26:43.120Z"
}