{
  "contractName": "CacheGame",
  "abi": [
    {
      "constant": true,
      "inputs": [
        {
          "name": "cacheAddress",
          "type": "address"
        },
        {
          "name": "passPhrase",
          "type": "bytes32"
        }
      ],
      "name": "getPool",
      "outputs": [
        {
          "name": "",
          "type": "uint256"
        }
      ],
      "payable": false,
      "stateMutability": "view",
      "type": "function"
    },
    {
      "constant": false,
      "inputs": [
        {
          "name": "solvedAddress",
          "type": "address"
        },
        {
          "name": "passPhrase",
          "type": "bytes32"
        }
      ],
      "name": "solveCache",
      "outputs": [
        {
          "name": "",
          "type": "bool"
        },
        {
          "name": "",
          "type": "bytes32"
        },
        {
          "name": "",
          "type": "uint256"
        }
      ],
      "payable": false,
      "stateMutability": "nonpayable",
      "type": "function"
    },
    {
      "constant": true,
      "inputs": [
        {
          "name": "cacheAddress",
          "type": "address"
        },
        {
          "name": "_hint",
          "type": "bytes32"
        },
        {
          "name": "_passphrase",
          "type": "bytes32"
        }
      ],
      "name": "viewCache",
      "outputs": [
        {
          "name": "",
          "type": "bytes32"
        },
        {
          "name": "",
          "type": "bytes32"
        },
        {
          "name": "",
          "type": "uint256"
        }
      ],
      "payable": false,
      "stateMutability": "view",
      "type": "function"
    },
    {
      "constant": false,
      "inputs": [
        {
          "name": "_title",
          "type": "bytes32"
        },
        {
          "name": "_hint",
          "type": "bytes32"
        },
        {
          "name": "_passphrase",
          "type": "bytes32"
        }
      ],
      "name": "createCache",
      "outputs": [
        {
          "name": "creator",
          "type": "address"
        },
        {
          "name": "bounty",
          "type": "uint256"
        },
        {
          "name": "title",
          "type": "bytes32"
        },
        {
          "name": "hint",
          "type": "bytes32"
        },
        {
          "name": "passphrase",
          "type": "bytes32"
        },
        {
          "name": "found",
          "type": "bool"
        }
      ],
      "payable": true,
      "stateMutability": "payable",
      "type": "function"
    },
    {
      "constant": true,
      "inputs": [
        {
          "name": "",
          "type": "uint256"
        }
      ],
      "name": "openCaches",
      "outputs": [
        {
          "name": "creator",
          "type": "address"
        },
        {
          "name": "bounty",
          "type": "uint256"
        },
        {
          "name": "title",
          "type": "bytes32"
        },
        {
          "name": "hint",
          "type": "bytes32"
        },
        {
          "name": "passphrase",
          "type": "bytes32"
        },
        {
          "name": "found",
          "type": "bool"
        }
      ],
      "payable": false,
      "stateMutability": "view",
      "type": "function"
    },
    {
      "constant": true,
      "inputs": [
        {
          "name": "",
          "type": "uint256"
        }
      ],
      "name": "closedCaches",
      "outputs": [
        {
          "name": "creator",
          "type": "address"
        },
        {
          "name": "bounty",
          "type": "uint256"
        },
        {
          "name": "title",
          "type": "bytes32"
        },
        {
          "name": "hint",
          "type": "bytes32"
        },
        {
          "name": "passphrase",
          "type": "bytes32"
        },
        {
          "name": "found",
          "type": "bool"
        }
      ],
      "payable": false,
      "stateMutability": "view",
      "type": "function"
    },
    {
      "constant": true,
      "inputs": [
        {
          "name": "",
          "type": "address"
        }
      ],
      "name": "caches",
      "outputs": [
        {
          "name": "creator",
          "type": "address"
        },
        {
          "name": "bounty",
          "type": "uint256"
        },
        {
          "name": "title",
          "type": "bytes32"
        },
        {
          "name": "hint",
          "type": "bytes32"
        },
        {
          "name": "passphrase",
          "type": "bytes32"
        },
        {
          "name": "found",
          "type": "bool"
        }
      ],
      "payable": false,
      "stateMutability": "view",
      "type": "function"
    }
  ],
  "bytecode": "0x6060604052341561000f57600080fd5b610b238061001e6000396000f300606060405260043610610083576000357c0100000000000000000000000000000000000000000000000000000000900463ffffffff168063026b1d5f146100885780630c0deff3146100b1578063372525a51461010f578063416960ff1461017a5780634f13ee44146101b0578063803b696514610252578063f818c587146102f4575b600080fd5b341561009357600080fd5b61009b6103ac565b6040518082815260200191505060405180910390f35b34156100bc57600080fd5b6100f5600480803573ffffffffffffffffffffffffffffffffffffffff16906020019091908035600019169060200190919050506103cb565b604051808215151515815260200191505060405180910390f35b341561011a57600080fd5b610146600480803573ffffffffffffffffffffffffffffffffffffffff1690602001909190505061058b565b6040518084600019166000191681526020018360001916600019168152602001828152602001935050505060405180910390f35b6101ae6004808035600019169060200190919080356000191690602001909190803560001916906020019091905050610663565b005b34156101bb57600080fd5b6101d160048080359060200190919050506108f2565b604051808773ffffffffffffffffffffffffffffffffffffffff1673ffffffffffffffffffffffffffffffffffffffff16815260200186815260200185600019166000191681526020018460001916600019168152602001836000191660001916815260200182151515158152602001965050505050505060405180910390f35b341561025d57600080fd5b610273600480803590602001909190505061096a565b604051808773ffffffffffffffffffffffffffffffffffffffff1673ffffffffffffffffffffffffffffffffffffffff16815260200186815260200185600019166000191681526020018460001916600019168152602001836000191660001916815260200182151515158152602001965050505050505060405180910390f35b34156102ff57600080fd5b61032b600480803573ffffffffffffffffffffffffffffffffffffffff169060200190919050506109e2565b604051808773ffffffffffffffffffffffffffffffffffffffff1673ffffffffffffffffffffffffffffffffffffffff16815260200186815260200185600019166000191681526020018460001916600019168152602001836000191660001916815260200182151515158152602001965050505050505060405180910390f35b60003073ffffffffffffffffffffffffffffffffffffffff1631905090565b600080826040518082600019166000191681526020019150506040518091039020600019166000808673ffffffffffffffffffffffffffffffffffffffff1673ffffffffffffffffffffffffffffffffffffffff1681526020019081526020016000206004015460405180826000191660001916815260200191505060405180910390206000191614151561045f57600080fd5b6000808573ffffffffffffffffffffffffffffffffffffffff1673ffffffffffffffffffffffffffffffffffffffff16815260200190815260200160002060010154905060016000808673ffffffffffffffffffffffffffffffffffffffff1673ffffffffffffffffffffffffffffffffffffffff16815260200190815260200160002060050160006101000a81548160ff02191690831515021790555060008060008673ffffffffffffffffffffffffffffffffffffffff1673ffffffffffffffffffffffffffffffffffffffff168152602001908152602001600020600101819055503373ffffffffffffffffffffffffffffffffffffffff166108fc829081150290604051600060405180830381858888f19350505050151561058457600080fd5b5092915050565b60008060008060008573ffffffffffffffffffffffffffffffffffffffff1673ffffffffffffffffffffffffffffffffffffffff168152602001908152602001600020600201546000808673ffffffffffffffffffffffffffffffffffffffff1673ffffffffffffffffffffffffffffffffffffffff168152602001908152602001600020600301546000808773ffffffffffffffffffffffffffffffffffffffff1673ffffffffffffffffffffffffffffffffffffffff168152602001908152602001600020600101549250925092509193909250565b60c0604051908101604052803373ffffffffffffffffffffffffffffffffffffffff1681526020013481526020018460001916815260200183600019168152602001826040518082600019166000191681526020019150506040518091039020600019168152602001600015158152506000803373ffffffffffffffffffffffffffffffffffffffff1673ffffffffffffffffffffffffffffffffffffffff16815260200190815260200160002060008201518160000160006101000a81548173ffffffffffffffffffffffffffffffffffffffff021916908373ffffffffffffffffffffffffffffffffffffffff1602179055506020820151816001015560408201518160020190600019169055606082015181600301906000191690556080820151816004019060001916905560a08201518160050160006101000a81548160ff021916908315150217905550905050600180548060010182816107c99190610a4b565b916000526020600020906006020160008060003373ffffffffffffffffffffffffffffffffffffffff1673ffffffffffffffffffffffffffffffffffffffff16815260200190815260200160002090919091506000820160009054906101000a900473ffffffffffffffffffffffffffffffffffffffff168160000160006101000a81548173ffffffffffffffffffffffffffffffffffffffff021916908373ffffffffffffffffffffffffffffffffffffffff160217905550600182015481600101556002820154816002019060001916905560038201548160030190600019169055600482015481600401906000191690556005820160009054906101000a900460ff168160050160006101000a81548160ff021916908315150217905550505050505050565b60018181548110151561090157fe5b90600052602060002090600602016000915090508060000160009054906101000a900473ffffffffffffffffffffffffffffffffffffffff16908060010154908060020154908060030154908060040154908060050160009054906101000a900460ff16905086565b60028181548110151561097957fe5b90600052602060002090600602016000915090508060000160009054906101000a900473ffffffffffffffffffffffffffffffffffffffff16908060010154908060020154908060030154908060040154908060050160009054906101000a900460ff16905086565b60006020528060005260406000206000915090508060000160009054906101000a900473ffffffffffffffffffffffffffffffffffffffff16908060010154908060020154908060030154908060040154908060050160009054906101000a900460ff16905086565b815481835581811511610a7857600602816006028360005260206000209182019101610a779190610a7d565b5b505050565b610af491905b80821115610af057600080820160006101000a81549073ffffffffffffffffffffffffffffffffffffffff021916905560018201600090556002820160009055600382016000905560048201600090556005820160006101000a81549060ff021916905550600601610a83565b5090565b905600a165627a7a7230582019dfff06bb87f8164c99352ba122522dad03bfda5dbf7a11ba1cde4ce0dfed470029",
  "source": "\npragma solidity ^0.4.2;\n\ncontract CacheGame {\n  \n  struct Cache {\n    address creator;\n    uint bounty;\n    bytes32 title;\n    bytes32 hint;\n    bytes32 passphrase;\n    bool found;\n  }\n  \n  mapping (address => Cache) public caches;\n\n  Cache[] public openCaches;\n  Cache[] public closedCaches;\n\n// make a new cache\n\n  function createCache(bytes32 _title, bytes32 _hint, bytes32 _passphrase) public payable \n  {\n    caches[msg.sender] = Cache({\n      creator: msg.sender,\n      bounty: msg.value,\n      title: _title,\n      hint: _hint,\n      passphrase: keccak256(_passphrase),\n      found: false\n    });\n\n    openCaches.push(caches[msg.sender]);\n\n  }\n\n//view an active cache\n\n  function viewCache(address cacheAddress) constant returns(bytes32, bytes32, uint) {\n    return (caches[cacheAddress].title, caches[cacheAddress].hint, caches[cacheAddress].bounty);\n  }\n\n  function getPool() constant returns (uint) {\n    return this.balance;\n  }\n\n//solve an existing cache\n\n  function solveCache(address solvedAddress, bytes32 passPhrase) returns(bool) {\n    //check validity\n    require(keccak256(caches[solvedAddress].passphrase) == keccak256(passPhrase));\n    \n    //declare bounty\n    uint bountyAmount = caches[solvedAddress].bounty;\n    \n    //set cache to found and zero out bounty\n    caches[solvedAddress].found = true;\n    caches[solvedAddress].bounty = 0;\n\n    //pay bounty\n    msg.sender.transfer(bountyAmount);\n\n  }\n\n\n\n\n\n\n}",
  "sourcePath": "/Users/emessess/FSA/Senior/Stackathon/ETHCache/contracts/CacheGame.sol",
  "compiler": {
    "name": "solc",
    "version": "0.4.18+commit.9cf6e910.Emscripten.clang"
  },
  "schemaVersion": "1.0.1",
  "updatedAt": "2017-11-12T23:06:26.308Z"
}