{
  "contractName": "Cache",
  "abi": [
    {
      "constant": false,
      "inputs": [
        {
          "name": "_code",
          "type": "uint256"
        }
      ],
      "name": "findCache",
      "outputs": [
        {
          "name": "",
          "type": "uint256"
        }
      ],
      "payable": false,
      "stateMutability": "nonpayable",
      "type": "function"
    },
    {
      "constant": true,
      "inputs": [],
      "name": "placer",
      "outputs": [
        {
          "name": "",
          "type": "address"
        }
      ],
      "payable": false,
      "stateMutability": "view",
      "type": "function"
    },
    {
      "constant": false,
      "inputs": [],
      "name": "addBounty",
      "outputs": [],
      "payable": true,
      "stateMutability": "payable",
      "type": "function"
    },
    {
      "constant": true,
      "inputs": [],
      "name": "bounty",
      "outputs": [
        {
          "name": "",
          "type": "uint256"
        }
      ],
      "payable": false,
      "stateMutability": "view",
      "type": "function"
    },
    {
      "constant": true,
      "inputs": [],
      "name": "checkBounty",
      "outputs": [
        {
          "name": "",
          "type": "uint256"
        }
      ],
      "payable": false,
      "stateMutability": "view",
      "type": "function"
    },
    {
      "constant": true,
      "inputs": [],
      "name": "finder",
      "outputs": [
        {
          "name": "",
          "type": "address"
        }
      ],
      "payable": false,
      "stateMutability": "view",
      "type": "function"
    },
    {
      "inputs": [
        {
          "name": "_passphrase",
          "type": "uint256"
        },
        {
          "name": "_placer",
          "type": "address"
        }
      ],
      "payable": false,
      "stateMutability": "nonpayable",
      "type": "constructor"
    },
    {
      "anonymous": false,
      "inputs": [
        {
          "indexed": false,
          "name": "winnner",
          "type": "address"
        }
      ],
      "name": "CacheFound",
      "type": "event"
    }
  ],
  "bytecode": "0x6060604052341561000f57600080fd5b60405160408061047d8339810160405280805190602001909190805190602001909190505080600160006101000a81548173ffffffffffffffffffffffffffffffffffffffff021916908373ffffffffffffffffffffffffffffffffffffffff16021790555060006002819055508160038190555050506103e8806100956000396000f300606060405260043610610078576000357c0100000000000000000000000000000000000000000000000000000000900463ffffffff16806320a2baa81461007d578063532501fb146100b45780639319458c14610109578063943dfef11461011357806394ad83621461013c578063b9a3c84c14610165575b600080fd5b341561008857600080fd5b61009e60048080359060200190919050506101ba565b6040518082815260200191505060405180910390f35b34156100bf57600080fd5b6100c7610222565b604051808273ffffffffffffffffffffffffffffffffffffffff1673ffffffffffffffffffffffffffffffffffffffff16815260200191505060405180910390f35b610111610248565b005b341561011e57600080fd5b610126610277565b6040518082815260200191505060405180910390f35b341561014757600080fd5b61014f61027d565b6040518082815260200191505060405180910390f35b341561017057600080fd5b610178610287565b604051808273ffffffffffffffffffffffffffffffffffffffff1673ffffffffffffffffffffffffffffffffffffffff16815260200191505060405180910390f35b600060035482141561021857336000806101000a81548173ffffffffffffffffffffffffffffffffffffffff021916908373ffffffffffffffffffffffffffffffffffffffff16021790555061020e6102ac565b600254905061021d565b600090505b919050565b600160009054906101000a900473ffffffffffffffffffffffffffffffffffffffff1681565b60001515600460009054906101000a900460ff16151514151561026a57600080fd5b3460025401600281905550565b60025481565b6000600254905090565b6000809054906101000a900473ffffffffffffffffffffffffffffffffffffffff1681565b6001600460006101000a81548160ff0219169083151502179055507fef7d8d7cd1d5c959509c052ccfeeecc649d4bc0dda37e37b1aedde16aa1fd6346000809054906101000a900473ffffffffffffffffffffffffffffffffffffffff16604051808273ffffffffffffffffffffffffffffffffffffffff1673ffffffffffffffffffffffffffffffffffffffff16815260200191505060405180910390a1600160025411156103ba576000809054906101000a900473ffffffffffffffffffffffffffffffffffffffff1673ffffffffffffffffffffffffffffffffffffffff166108fc6002549081150290604051600060405180830381858888f1935050505015156103b957600080fd5b5b5600a165627a7a72305820b2937b19068e7388ab22450af68d4949172502c5de37ede3245bffb9631818120029",
  "source": "pragma solidity ^0.4.11;\n\ncontract Cache {\n    address public finder;\n    address public placer;\n\n    // Current state of the game\n    uint public bounty;\n    uint passphrase;\n\n    // Set to true when cache is found, disallows any change\n    bool ended;\n\n    // Events that will be fired on changes.\n    event CacheFound(address winnner);\n\n    //constructor\n    function Cache (uint _passphrase, address _placer) {\n        placer = _placer;\n        bounty = 0;\n        passphrase = _passphrase;\n        \n    }\n\n    //add to the current bounty\n    function addBounty() payable {\n       require(ended == false);\n       bounty = bounty + msg.value;\n    }\n\n    function checkBounty() constant returns (uint) {\n        return bounty;\n    }\n\n    /// Attempt to prove you found the cache using code on object\n    \n    function findCache(uint _code) returns(uint) {\n        // If the code is not correct, end the cache game\n\n      if (_code == passphrase) {\n        finder = msg.sender;\n        cacheEnd();\n        return bounty;\n      }\n      // if not return 0\n        return 0;\n    }\n\n\n    function cacheEnd() internal {\n\n        ended = true;\n        CacheFound(finder);\n\n        if (bounty > 1) {\n          finder.transfer(bounty);\n        }\n    }\n}",
  "sourcePath": "/Users/emessess/FSA/Senior/Stackathon/ETHCache/contracts/Cache.sol",
  "compiler": {
    "name": "solc",
    "version": "0.4.18+commit.9cf6e910.Emscripten.clang"
  },
  "schemaVersion": "1.0.1",
  "updatedAt": "2017-11-13T17:18:55.846Z"
}